:020000040800F2
:10000000B807002089010008CD1C0008CD1A00089F
:10001000C91C000845020008711E0008000000000D
:10002000000000000000000000000000411D00086A
:100030004902000800000000E11C0008451D0008FE
:10004000A3010008A3010008A3010008A301000800
:10005000A3010008A3010008A3010008A3010008F0
:10006000A3010008A3010008A3010008A3010008E0
:10007000A3010008A3010008A3010008A3010008D0
:10008000A3010008A3010008A3010008A3010008C0
:10009000A3010008A3010008A3010008A3010008B0
:1000A000A3010008A3010008A3010008A3010008A0
:1000B0004D1D0008A3010008A3010008A3010008CA
:1000C000A3010008A3010008A3010008A301000880
:1000D000A3010008651E0008A3010008A301000891
:1000E000A3010008A3010008A301000800F002F822
:1000F00000F03AF80AA090E8000C82448344AAF188
:100100000107DA4501D100F02FF8AFF2090EBAE885
:100110000F0013F0010F18BFFB1A43F0010318473B
:10012000A42A0000C42A0000103A24BF78C878C16D
:10013000FAD8520724BF30C830C144BF04680C60ED
:10014000704700000023002400250026103A28BF35
:1001500078C1FBD8520728BF30C148BF0B60704739
:100160001FB51FBD10B510BD00F031F81146FFF7E7
:10017000F7FF01F07FFE00F04FF803B4FFF7F2FF46
:1001800003BC00F057F800000948804709480047C1
:10019000FEE7FEE7FEE7FEE7FEE7FEE7FEE7FEE737
:1001A000FEE7FEE704480549054A064B7047000094
:1001B000491D0008ED000008B8010020B807002024
:1001C000B8030020B8030020704770477047754699
:1001D00000F02CF8AE4605006946534620F00700B3
:1001E000854618B020B5FFF7DDFFBDE820404FF091
:1001F00000064FF000074FF000084FF0000BAC4630
:10020000ACE8C009ACE8C009ACE8C009ACE8C0097A
:1002100021F007018D46704710B50446AFF300800A
:100220002046BDE81040FFF7A8BF00000048704717
:100230003800002001491820ABBEFEE7260002006E
:1002400070470000FEE7000070470000EFF31080E9
:1002500072B600BFFEE70000014690F821000228B8
:1002600016D10868D1E90FC3026822F00E020260BD
:10027000026822F001020260012000FA03F2CCF8C9
:10028000042081F821000020002281F820207047FE
:10029000042088630120002281F82020704700009C
:1002A00080B590F82110022924D10268116821F04C
:1002B0000E0111602F211368C4F202018A4240F23C
:1002C0000401C4F2020123F00103136016DD3023A0
:1002D000C4F202039A421DD04423C4F202039A429C
:1002E0001CD05823C4F202039A421DD14FF480332C
:1002F00022E000BF04218163012080BD0823C4F2F5
:1003000002039A420ED01C23C4F202039A420BD17C
:10031000102311E04FF480730EE000BF4FF48053C0
:100320000AE000BF012307E001F1680C4FF0807381
:10033000624508BF4FF480130B60012180F8211043
:10034000426B002180F820100AB190470021084636
:1003500080BD0000B0B5044600F02AF9054640F221
:100360002400C2F200000078611C18BF044400BFE2
:1003700000F01EF9401BA042FAD3B0BD2DE9F04FAA
:1003800082B00E68002E00F0038141F20042C4F2F8
:100390000102042340F2004E904208BF03234FF6AF
:1003A000FF7CC4F2010E009300240123C1F2100C63
:1003B0004FF0000A4FF0000949E000BF012704F0A8
:1003C0000C030F229A402BEA020207FA03F34FEACA
:1003D0009A051A4346F82520D1F804B040F20C459E
:1003E0005FEACB22DEF8082054BF22EA080242EA84
:1003F0000802C4F20105CEF808202A685FEA8B23C0
:1004000054BF22EA080242EA08022A605FEA8B33FC
:10041000DEF8042054BF22EA080242EA08025FEA3A
:10042000CB33CEF80420DEF800204FF0010354BF98
:1004300022EA080242EA0802CEF800200E680AF119
:10044000010A36FA0AF204F1040400F0A18003FA6A
:100450000AF816EA080FF1D04E68664512DC122E33
:1004600056D8DFE806F0350B4549555555555555D5
:10047000555555555555554D510000BFD1F80C9067
:1004800046E000BF4FF6FF72C1F2210296420FDC38
:100490000022C1F2110296421AD00022C1F21202C9
:1004A000964215D00022C1F22102964210D02FE0D0
:1004B0000022C1F2220296420AD00022C1F2310289
:1004C000964205D00022C1F23202964220D100BFEE
:1004D0008A684AB1012A14BFC0F81480C0F810809D
:1004E0004FF0080914E000BF4FF0040910E000BF0E
:1004F000CA6802F108090BE04FF0000908E000BFEC
:10050000CA6802F1040903E0CA6802F10C0900BFDD
:1005100022460646BAF1080F24BF203A043637684F
:100520000F25954027EA050509FA02F22A433260B1
:10053000CA79D2067FF582AF41F21803C4F20203F2
:100540001A68AEF57E7642F001021A601A6802F06F
:1005500001020192019A2AF0030256F802B040F615
:100560000002C4F20102904210D040F60042C4F2F0
:10057000010290423FF422AF41F20002C4F20102B4
:10058000009F904208BF022719E700BF002716E727
:1005900002B0BDE8F08F00008068084018BF01205D
:1005A00070470000002A08BF09040161704700007D
:1005B00040F2B410C2F200000068704740F224001C
:1005C00040F2B411C2F20000C2F2000100780A68E1
:1005D000104408607047000080B542F20000C4F289
:1005E0000200016841F010010160032000F08EF864
:1005F0000F2000F005F800F027F8002080BD000073
:1006000070B540F22406C2F2000640F22C013278A6
:10061000C2F200014FF47A730968B3FBF2F20446A8
:10062000B1FBF2F1084600F063FB0F2C4FF001051F
:1006300008D838B94FF0FF3021460022002500F0DD
:1006400039F87460284670BD82B041F21800C4F2D7
:1006500002000168022241F001010160016801F01D
:10066000010101910199416841F080514160406868
:1006700000F08050009000980420C4F2010001684E
:1006800062F31A61016002B070470000002848BFA1
:100690007047C1B200F01F00012202FA00F04EF2D2
:1006A0000012CEF2000242EAD10121F003010860FB
:1006B0007047000010B54EF60C5CCEF2000CDCF872
:1006C0000030C3F3022E8EF00704042C28BF04244C
:1006D000BEF103034FF0FF3E0EFA04F438BF0023CF
:1006E000A14399400EFA03F39A43114300F00F021D
:1006F00000F160430901043A03F5644362440028B1
:1007000048BF02F10C03197010BD00004EF60C51E9
:10071000CEF200010A684FF6FF031A4060F30A2286
:1007200042F0806040F0FD70086070472DE9F043B2
:1007300081B0002800F0858042F20008C4F202086F
:100740000446D8F800000D4600F0070088420CD29D
:10075000D8F8000020F007002843C8F80000D8F8B7
:10076000000000F00700A8426BD1206841F20409A4
:100770008107C4F2020917D5410705D5D9F8001041
:1007800041F4E061C9F80010010705D5D9F800105F
:1007900041F46051C9F80010D9F80010A26821F0A6
:1007A000F0011143C9F80010C00741D1D8F800008A
:1007B00000F00700A8420CD9D8F8000020F007008C
:1007C0002843C8F80000D8F8000000F00700A8424D
:1007D00037D12068410707D5D9F80010E26821F425
:1007E000E0611143C9F80010000708D5D9F80000EE
:1007F000216920F4605040EAC100C9F80000D9F82E
:10080000002002F00C00082841F20020C0F27A001B
:1008100050D142F6B433C2F38341C0F60003595CB1
:10082000D2033BD440F60010C0F23D00484341E003
:10083000606802280AD001282AD159F8041C8903CB
:1008400008D4012001B0BDE8F08300BF59F8041CB2
:100850008901F6D5D9F8001021F003010843C9F841
:100860000000FFF7A5FE064641F28837D9F80000E0
:10087000616800F00C00B0EB810F97D0FFF798FE95
:10088000801BB842F2D9032001B0BDE8F08300BF5D
:1008900059F8041C8907D4D5DCE700BFD9F800203B
:1008A00042F6B233C2F34042C0F600039A5C4843BA
:1008B000B0FBF2F0D9F8001042F69A32C1F30311FE
:1008C000C0F60002515C40F22C0220FA01F140F225
:1008D0002800C2F200000068C2F200021160FFF7B7
:1008E0008FFE002001B0BDE8F083000040F22C0034
:1008F00041F20401C2F20000C4F20201006809687A
:1009000042F6AA32C1F30221C0F60002515CC8408F
:100910007047000040F22C0041F20401C2F20000D6
:10092000C4F202010068096842F6AA32C1F3C2218A
:10093000C0F60002515CC840704700002DE9F0414C
:1009400082B0002868D00446007841F20006C00753
:10095000C4F2020625D0706800F00C0004281BD0F9
:10096000706800F00C00082802D17068C00313D42E
:100970006068002800F06881B0F5A02F00F07C814D
:10098000B0F5803F00F07C81306820F4803030602A
:10099000306820F4802076E13068800301D56068FB
:1009A000D0B32078800718D5706810F00C0F07D0EE
:1009B000706800F00C0008286ED17068C0036BD41A
:1009C0003068800702D52069012825D13068616927
:1009D00020F0F80040EAC1003060207800071FD402
:1009E0002078400732D4E56995B1706800F00C00BA
:1009F000082840F08F80012D0ED07068216A00F425
:100A000080328A4208D1616A00F47010884203D1B2
:100A1000002002B0BDE8F081012002B0BDE8F08105
:100A2000A069002862D00020C4F242200121C0F851
:100A30008014FFF7BDFD0546706A800700F18C80C9
:100A4000FFF7B6FD401B0228F6D92AE1F06910F045
:100A5000805808D1F06940F08050F061F06900F0F2
:100A600080500090009847F20007C4F200073868F1
:100A7000C00529D4386840F480703860FFF798FDCD
:100A8000054600BF3868C0051ED4FFF791FD401B26
:100A90006428F7D905E100BF2069002840F2000072
:100AA000C4F2422000F0828001210160FFF780FD46
:100AB000054600BF306880073FF588AFFFF778FD37
:100AC000401B0228F6D9ECE0E068002800F08080A6
:100AD000052800F09780012800F09880306A20F007
:100AE00001003062306A20F0040092E00020C4F27D
:100AF00042200021C0F88014FFF75AFD054600BFD0
:100B0000706A80077FF56CAFFFF752FD401B02282B
:100B1000F6D9C6E00027C4F2422700203866FFF766
:100B200047FD022D05460BD13068800140F1BE80A3
:100B3000FFF73EFD401B02284FF00300F4D968E7A1
:100B4000306880017FF564AFFFF732FD401B02285B
:100B50004FF00300F4D95CE740F22C00C2F2000031
:100B6000006844F6D351C1F26201A0FB0101480ABA
:100B7000019000BF00BF0198411E002801913FF481
:100B80002FAF00BF0198411E002801913FF428AF0C
:100B900000BF0198411E002801913FF421AF00BF22
:100BA0000198411E00280191E4D119E7002101605C
:100BB000FFF7FEFC054600BF306880077FF50DAFEC
:100BC000FFF7F6FC401B02284FF00300F4D920E7A2
:100BD000306A20F001003062306A20F00400306298
:100BE000FFF7E6FC054641F2883700BF306A800710
:100BF00020D5FFF7DDFC401BB8424FF00300F5D9CC
:100C000007E700BF306A40F004003062306A40F00D
:100C100001003062FFF7CCFC054641F2883700BF87
:100C2000306A800706D4FFF7C3FC401BB842F7D9EF
:100C300037E000BFB8F1000F7FF4D5AEF06920F0C7
:100C40008050F061CFE600BF306820F48030306023
:100C5000306820F480203060FFF7AAFC054600BF12
:100C6000306880037FF59DAEFFF7A2FC401B64282F
:100C70004FF00300F4D9CCE6306840F480203060B7
:100C8000306840F480303060FFF792FC054600BFCA
:100C9000306880033FF585AEFFF78AFC401B64286F
:100CA000F6D9032002B0BDE8F08100BF206AB0F59C
:100CB000803F05D17168A26821F400311143716051
:100CC0007168626A21F47411114308437060012055
:100CD0003866FFF76DFC0446306880013FF598AE3A
:100CE000FFF766FC001B02284FF00300F4D990E6E2
:100CF000411E0020B0EB116F1CBF012070474EF267
:100D00001002CEF2000251604EF62351CEF20001E5
:100D1000F0230B700721906011607047704700004E
:100D20007047000010B590F83C20012A4FF00202F5
:100D300033D080F83D200268D2F804E0D2F808C031
:100D40000C682EF07003234340F2FF74C4F20004D9
:100D5000A24253600ADCB2F1804F13D040F200434C
:100D6000C4F200039A420DD011E000BF42F60043E6
:100D7000C4F201039A4205D040F60003C4F2000316
:100D80009A4204D149682CF08003194391600121F3
:100D9000002280F83D1080F83C20104610BD000075
:100DA0007047000070B504460068C5680669B10761
:100DB00016D515F0020113D06FF002010161012177
:100DC00021778069800703D02046FFF7E9FF05E01F
:100DD000204600F08FF8204600F032FA00202077FD
:100DE000700719D515F0040016D020686FF00401C3
:100DF000016102212177806910F4407F04D02046F0
:100E0000FFF7CEFF06E000BF204600F073F8204653
:100E100000F016FA00202077300717D515F00800EB
:100E200014D020686FF00801016104212177C069A6
:100E3000800703D02046FFF7B3FF05E0204600F00F
:100E400059F8204600F0FCF900202077F00619D56B
:100E500015F0100016D020686FF010010161082114
:100E60002177C06910F4407F04D02046FFF798FF37
:100E700006E000BF204600F03DF8204600F0E0F913
:100E800000202077F00718BF15F0010002D13006CE
:100E900009D412E020686FF001010161204600F0E2
:100EA00041FA300609D515F0800006D020686FF0B1
:100EB000800101612046FFF731FF700609D515F06A
:100EC000400006D020686FF040010161204600F02C
:100ED0002BFAB00658BF70BD15F0200008D021686D
:100EE0006FF0200220460A61BDE87040FFF718BF8E
:100EF00070BD0000704700002DE9F04390F83C30D1
:100F0000012B04BF0220BDE8F0834FEAB202032A9E
:100F10003CD8DFE802F0034381BD00BF036842F61E
:100F200000461D6A1A6AC4F2010622F001021A6222
:100F30001A465C6852F818CFB3428E68D1F800E0C8
:100F400025F0020545EA06050CD1CE68D1E9057801
:100F500024F4407425F00C0526F004063C43354388
:100F600044EA08042CF0730747EA0E075C609F61AF
:100F70004F6809695F631D629F6947F008079F61B9
:100F80009F6927F004079F61B2E000BF01210022A2
:100F900080F83C200846BDE8F08300BF036842F6B5
:100FA00000461D6A1A6AC4F2010622F010021A6293
:100FB0001A46D3F804C052F8184FB3428E68D1F8DD
:100FC00000E025F0200545EA061510D1CE68D1E9EC
:100FD000058725F0C0096FF0400505EA06152CF4D9
:100FE000406647EA080745EA090546EA870C24F403
:100FF000E64444EA0E27C3F804C09F614F680969BC
:101000009F631D629F6947F400679F619F6927F492
:1010100080679F616BE000BF036842F600461D6A6F
:101020001A6AC4F2010622F480721A621A46D3F8D0
:1010300004C052F81CEFB3428E680C6825F40075AA
:1010400045EA062511D1CE68D1E9058725F4406926
:10105000360240F2FF4526EA05052CF4405647EAE1
:10106000080745EA090546EA071C2EF073072743DF
:10107000C3F804C0DF614F680969DF631D62DF697F
:1010800047F00807DF61DF6927F00407DF612FE021
:10109000036842F60047D3F820C01A6AC4F2010779
:1010A00022F480521A621A465C6852F81C5FD1F82A
:1010B00000E08E68BB4204D14F6924F4804444EAC6
:1010C00087142CF4005747EA063725F4E64646EA2B
:1010D0000E265C60DE614E6809691E641F62DF696E
:1010E00047F40067DF61DF6927F48067DF61090289
:1010F0001368194311600021002280F83C20084643
:10110000BDE8F083002804BF0120704710B50446F5
:1011100090F83D0028B9002084F83C00204600F0FB
:101120006FF8022084F83D00206840F2FF730268E7
:10113000C4F2000342F6004C9842C4F2010C15DCE4
:10114000B0F1804F1AD040F20041C4F20001884251
:1011500014D0984218DCB0F1804F1DD040F200410D
:10116000C4F20001884217D01AE000BF604505D0E4
:1011700040F60001C4F200018842EAD1A16822F0E1
:1011800070020A439842E6DD604505D040F6000152
:10119000C4F20001884203D1216922F440720A435B
:1011A000A36922F08001D4F804E0E26819436045A5
:1011B0000160C262C0F828E002D16169CCF8301049
:1011C000012141610269D20703D0026922F00102C4
:1011D0000261002084F8461084F83E1084F83F1025
:1011E00084F8401084F8411084F8421084F84310C9
:1011F00084F8441084F8451084F83D1010BD0000B8
:1012000080B582B00068B0F1804F1CBF02B080BDD5
:1012100041F21C00C4F202000168002241F0010109
:1012200001600068002100F00100019001981C207D
:10123000FFF740FA1C2002B0BDE88040FFF726BA55
:101240007047000041B1082910D0042914BF00F1F3
:10125000410200F13F020BE090F83E20012A1CBF42
:1012600001207047022280F83E2013E000F1400286
:101270001278012A1CBF012070470222082907D0DA
:10128000042914BF80F8412080F83F2002E000BF0D
:1012900080F84020006801F01F010122036A8A40A3
:1012A00023EA02010162036A42F64441C4F20101E9
:1012B0001A43A1F14403984202620FD040F2FF7139
:1012C000C4F20001884213DCB0F1804F1CD040F220
:1012D0000041C4F20001884216D01CE00A6842F4C2
:1012E00000420A6040F2FF71C4F200018842EBDD67
:1012F00042F60041C4F20101884205D040F60001E7
:10130000C4F20001884206D1816801F00701062974
:1013100004BF00207047016841F001010160002016
:1013200070470000704700007047000070470000E1
:1013300070470000B0B582B0044600680168C36819
:10134000426901F02F05202D03F0200506D12DB1B3
:10135000204602B0BDE8B04000F004BD5FEA017C69
:101360001EBF02F0010E03F4907212EB0E0253D175
:10137000226B012A05D111F0100218BF13F01002E0
:1013800036D10A0622D513F080021FD094F84110FE
:1013900021293FD1A168B1F5805F03D121690029DE
:1013A00000F07082216A4A1C226209784160E18C57
:1013B00001390A04E1842DD1C16821F08001C160A6
:1013C000C16841F04001C16002B0B0BD490621D5FD
:1013D00013F040011ED0C16821F04001C1602021FE
:1013E000204684F8411002B0BDE8B04000F06CBB6C
:1013F00000210191016801914168019101994069C1
:10140000400613D4A08DE18DE28D002A18BF8842DA
:1014100040F0BA8102B0B0BDCA0718BF13F48072A1
:1014200040F0B6804A0700F1B980BEE0E06B016889
:1014300049688AB2002AEDD0A38D9A42EAD2E185AA
:101440008069202800F09C80206850E8030F216804
:1014500020F4807041E80302DAB1206850E8030FFD
:10146000216820F4807041E8030292B1206850E8BE
:10147000030F216820F4807041E803024AB120681C
:1014800050E8030F216820F4807041E80302002A2D
:10149000DAD1206850E8050F216820F0010041E80A
:1014A0000502DAB1206850E8050F216820F001003C
:1014B00041E8050292B1206850E8050F216820F04C
:1014C000010041E805024AB1206850E8050F216893
:1014D00020F0010041E80502002ADAD1206850E836
:1014E000050F216820F0400041E80502DAB12068CC
:1014F00050E8050F216820F0400041E8050292B154
:10150000206850E8050F216820F0400041E80502FE
:101510004AB1206850E8050F216820F0400041E8FA
:101520000502002ADAD1202084F84200002020633E
:10153000206850E8030F216820F0100041E8030202
:10154000DAB1206850E8030F216820F0100041E86C
:10155000030292B1206850E8030F216820F01000C8
:1015600041E803024AB1206850E8030F216820F0E7
:10157000100041E80302002ADAD1E06BFEF76CFEAE
:1015800002206063A08DE18D401A81B2204674E193
:10159000626C42F0010262644A0706D5BEF1000F98
:1015A00003D0626C42F0020262648A0706D5BEF183
:1015B000000F03D0626C42F004026264BCF1000FC1
:1015C00009D545EA0E02B2FA82F2520903D1626CE1
:1015D00042F008026264626C002A3FF41BAF11F013
:1015E000200118BF002D03D0204600F0BBFB20686F
:1015F0004069616C00F0400001F00801401800F003
:10160000B58000BF206850E8030F216820F4907077
:1016100041E80302BAB3206850E8030F216820F4C0
:10162000907041E8030272B3206850E8030F21680C
:1016300020F4907041E803022AB3206850E8030FB9
:10164000216820F4907041E80302002ADAD11AE000
:10165000206850E8050F216820F0010041E80502EC
:10166000DAB1206850E8050F216820F0010041E858
:10167000050292B1206850E8050F216820F00100B2
:1016800041E805024AB1206850E8050F216820F0C2
:10169000010041E80502002ADAD1206B012824D19B
:1016A000206850E8030F216820F0100041E8030291
:1016B000DAB1206850E8030F216820F0100041E8FB
:1016C000030292B1206850E8030F216820F0100057
:1016D00041E803024AB1206850E8030F216820F076
:1016E000100041E80302002ADAD1202084F84200E9
:1016F000002020632068406940063FD5206850E8FC
:10170000050F216820F0400041E80502DAB12068A9
:1017100050E8050F216820F0400041E8050292B131
:10172000206850E8050F216820F0400041E80502DC
:101730004AB1206850E8050F216820F0400041E8D8
:101740000502002ADAD1E06BC0B141F65951C0F66A
:1017500000014163FEF7A4FD00283FF45BAEE06B9F
:10176000416B02B0BDE8B040084700BF2046FFF71C
:10177000DFFD0020606402B0B0BD00BF204602B0B3
:10178000BDE8B040FFF7D4BD401A216851E8031FFF
:10179000226821F4907142E80313DBB1216851E81B
:1017A000031F226821F4907142E8031393B121686A
:1017B00051E8031F226821F4907142E803134BB1F2
:1017C000216851E8031F226821F4907142E8031355
:1017D000002BDAD1216851E8051F226821F00101B0
:1017E00042E80513DBB1216851E8051F226821F0AA
:1017F000010142E8051393B1216851E8051F2268F1
:1018000021F0010142E805134BB1216851E8051FA1
:10181000226821F0010142E80513002BDAD12021D2
:1018200084F8421000212163216851E8031F2268D7
:1018300021F0100142E80313DBB1216851E8031FD6
:10184000226821F0100142E8031393B1216851E8A6
:10185000031F226821F0100142E803134BB12168F5
:1018600051E8031F226821F0100142E80313002B06
:10187000DAD1022281B22046626302B0BDE8B040F4
:10188000FFF754BD216A31F8022B6FF35F224260EB
:1018900021628CE5002804BF0120704710B5044682
:1018A00090F8410028B9002084F84000204600F05C
:1018B00063F8242084F841002068D4E90212C36848
:1018C00023F40053C360036923F440531A430261B5
:1018D000D4E904231143C268194341F20C639A43CB
:1018E0001143C1604169A26921F44071114343F67B
:1018F0000002C4F201029042416103D0FEF7F6FFFC
:1019000002E000BFFFF706F8626819214843910022
:10191000B0FBF1F048F21F51C5F2EB11A0FB01231F
:101920005A094FF69C73C0F6FF7302FB0300322383
:1019300003EB0010A0FB0101F02303EA5113206820
:1019400003EB0212C1F3431111448160016921F4D8
:1019500090410161416921F02A014161C16841F46E
:101960000051C16000202021606484F8411084F897
:101970004210606310BD000070B586B040F60004F0
:10198000C4F20104006804F5405100268842049620
:1019900002D006B070BD00BF41F21800C4F20200D0
:1019A000016802AD41F480410160016801F48041A9
:1019B00001910199016841F0040101600068294624
:1019C00000F00400019001984FF400700290022092
:1019D0000390032005902046FEF7D0FC4FF4806072
:1019E000CDE90206204629460496FEF7C7FC2520CD
:1019F00000210022FEF75EFE2520FEF747FE06B01E
:101A000070BD000090F84230202B1CBF02207047B0
:101A100000294FF0010318BF002A01D11846704772
:101A200000230363816222218285C285436480F89A
:101A300042100169006819B1C16841F48071C16048
:101A40004169002341F001014161C16841F0200179
:101A5000C160184670470000006843F60001C4F2F8
:101A60000101884218BF704740F29800C2F200009E
:101A70004278022A0CD0C178012A0DD0002A08BF72
:101A80002C2919D1012141700021017014E000BFFF
:101A90000021417010E000BF5B2905D14FF4817136
:101AA000A0F8011008E000BF02783E2A04D80278AE
:101AB000531C024403701174C11C40F26C10C2F23A
:101AC00000000122FFF79EBF70470000FEE7000004
:101AD0002DE9F04385B041F21800C4F2020001681C
:101AE00040F6004441F0100101600168C4F20104B5
:101AF00001F01001019101990168002241F02001DB
:101B0000016001684FF4805901F0200101910199B1
:101B10000168002641F004010160016801F0040140
:101B200001910199016841F00801016000684FF4DA
:101B3000805100F00800019001982046FEF732FD28
:101B400020464FF4407101224FF440780127FEF700
:101B500029FD022001AD049020462946CDE90197D8
:101B60000396FEF70BFC4FF40050CDE9010620462A
:101B700029460396FEF702FCA4F580602946CDE9CC
:101B800001960397FEF7FAFB082001A9C1C1204680
:101B90002946FEF7F3FB1120CDE90207032004904C
:101BA00020462946CDF80480FEF7E8FB05B0BDE8E5
:101BB000F083000010B590B040F224100021C2F272
:101BC00000004FF08042472344F61F64CDE908111E
:101BD000CDE90611CDE90411C0E90023C0E90214E2
:101BE00001618161FFF78EFA002818BFFEF72EFB16
:101BF00040F22410C2F2000008A9FFF793F8002871
:101C000018BFFEF723FB602001900020CDE9020001
:101C1000059040F22410C2F2000001A90422FFF74F
:101C20006BF9002818BFFEF711FB40F22414C2F232
:101C3000000401A920460822FFF75EF9002818BF1A
:101C4000FEF704FB20680021B0F1804F0E9101D017
:101C500010B010BD41F21800C4F20200016841F05A
:101C60000401016000680CA900F004000B900B98BF
:101C700006200C9002200D900F9040F60000C4F258
:101C80000100FEF77BFB10B010BD000080B540F2F4
:101C90006C1043F60001C2F20000C4F201010023FF
:101CA0004FF00C0C4FF4E13280E80E00C0E9033332
:101CB000C0E905C3C361FFF7EDFD002808BF80BD83
:101CC000BDE88040FEF7C2BAFEE70000FEE7000074
:101CD00080B500F071FD3821C4F20001086080BDBC
:101CE00070470000B0B540F29805C2F20005A87830
:101CF000002808BFB0BD287804281CD3288A00BA61
:101D0000000CA88000F024FC0024C4F25904002236
:101D1000234600F0C3FA00F08FFA698AA86008BA77
:101D2000000CE88000F014FC0022234600F0B6FA14
:101D300000F082FAE86000202870A5F80100B0BD2C
:101D400070470000FEF73ABC7047000040F22410D4
:101D5000C2F20000FFF726B8406A0021C185C184A5
:101D6000FFF7E6BA81B090F84210222921D18368AA
:101D70000246B3F5805F09D152F8281F52F8183C8B
:101D8000002B63D003685B680AE000BF52F8281F8D
:101D900013B90369002BF5D003685B6803F07F0378
:101DA0000B70116801311160C18D01390A04C185C0
:101DB00002D001B0704700BF0168CA6822F020025B
:101DC000CA60CA6822F48072CA604A6922F00102BD
:101DD0004A61202180F8421000214163026B012AF0
:101DE0003CD10163016851E8031F026821F0100132
:101DF00042E80313DBB1016851E8031F026821F0D8
:101E0000100142E8031393B1016851E8031F02680F
:101E100021F0100142E803134BB1016851E8031FA0
:101E2000026821F0100142E80313002BDAD10168A7
:101E30000A68D20606D5002200920A680092496814
:101E400000910099818D01B0FFF770BA0268526865
:101E50006FF35F2221F8022B8162A5E701B0FFF743
:101E6000FBBD000040F26C10C2F20000FFF762BA46
:101E7000FEE7000090B0FEF7AFFB00240120CDE9A3
:101E80000B44CDE9094406900A904FF4E0104FF45A
:101E9000803102250F9006A8CDE90714CDE90D5138
:101EA000FEF74CFD20B1EFF3108072B6FEE700BFE5
:101EB0000F20CDE901054FF48060CDE9040401A8AD
:101EC00002210394FEF732FC20B1EFF3108072B6CA
:101ED000FEE700BF40F600473826C4F20107C4F20F
:101EE0000006FFF7F5FDFFF765FEFFF7CFFE40F2B6
:101EF0006C1040F29B01C2F20000C2F2000101220C
:101F0000FFF780FD40F22415C2F2000528460421A7
:101F1000FFF798F928460821FFF794F938464FF45F
:101F200080510022FEF73EFB40F2E80540F2A00897
:101F300040F2300940F62E1440F2DC50A7F5806BD9
:101F4000C2F20005C2F20008C2F2000940F23A7A79
:101F50003460706009E000BF012240F60040C4F226
:101F600001004FF48051FEF71DFB00F01DF95846AB
:101F70004FF48051FEF710FB70B140F60040C4F200
:101F800001000821FEF708FB70B3287802282DD045
:101F9000012803D0E9E700BF01202870FFF7A2FE67
:101FA000D8F800700021384600F09CFB48B9D9F8F9
:101FB000000000F035FC0146384600F069F8D8F81A
:101FC0000070D9F8000000F02BFC0146384600F004
:101FD0006FFDA86020F000404FF0814100F0A5FBAC
:101FE0000028C2D0B8E700BF02202870FFF77AFEB1
:101FF000686840F2397188424FF08A01C9F80010D0
:1020000018D800BF201A30606868201AE860FFF70F
:1020100069FE0120FEF79EF9D8F8007000213846CD
:1020200000F060FB50B16868013050456860E9D34A
:1020300009E000BFD8F8007005E000BF012068701B
:1020400040F23C7068603846002100F04BFB48B914
:10205000D9F8000000F0E4FB0146384600F018F81B
:10206000D8F80070D9F8000000F0DAFB01463846D5
:1020700000F01EFD0021A86020F00040C4F2A00185
:1020800000F053FB0246002818BF012265E700005C
:102090002DE9F04F81B00D460146284600F008FDBD
:1020A00040F2F80BC2F2000BDBF820100446CBF82C
:1020B0001400284600F0FCFC40F20008C2F20008C0
:1020C000D8F82010D8F8189000F026FC49F69A119C
:1020D000009024F00040C3F69971CBF8205000F036
:1020E00016FB58B9DBF81C0043F233310024C3F669
:1020F0003371CBF8144000F00FFC04E0DBF81C1047
:10210000204600F08DFADBF818100546D8F804A038
:10211000D8F81460D8F81C70CBF81C00204600F0EA
:10212000C7FC0146384600F0F7FB0746304621461B
:1021300000F0F2FB394600F073FA0646484629469D
:1021400000F0EAFB314600F06BFA0146009800F01F
:1021500067FA0146CBF800005046CBF8184000F073
:102160005FFA44F20005C4F21C5529460446CBF838
:10217000240000F0C5FA38B90025C4F2FA3520462B
:10218000294600F0C4FA10B92C46CBF8245020465A
:10219000C8F8044000F010FB00F02AFB01B0BDE8D5
:1021A000F04FFFF795BD000070B540F2E800C2F2B5
:1021B00000000078022817D001283BD140F200002F
:1021C000C2F200004BF21771C3F6511148F2A74258
:1021D00049F287761430C3F2F0124FF07E53C3F207
:1021E000F1564EC070BD00BF40F200044CF2AC503E
:1021F00047F25F0140F2E906C2F20004C3F627008D
:10220000C3F28901C2F20006C4E9050130784AF63A
:102210008202CBF27B7200250128E261256218BFA1
:1022200070BD40F2F400C2F20000006800F0F8FA5D
:102230006060357070BD000021F0004201F0004385
:10224000A2F16052B2F5801F28BFD2F17F6C0BD98A
:102250005FEA001C43EAC20242EB507018BF7047AD
:1022600028BF20F001007047B2F5801FBCBF1846A0
:1022700070474FEA410C1CF5001F02D2084600F0DF
:1022800012BC70B500F077F900000089FFF7F6BFC7
:102290004FF00040A0F58000704700002DE9C041DC
:1022A00030B4DFF8A4C23CEA111418BF3CEA13149E
:1022B00000F0ED801CEA111481EA030544EAD574AC
:1022C00018BF1CEA131500F0C880A4EB050404F144
:1022D0007F7404F500344FF0004545EAC12145EA1A
:1022E000C32341EA505143EA52534FEAC0204FEA18
:1022F000C222994208BF904200F09D804FEA1365C8
:102300000FF24416765D4FEA134506FB05F7C7F159
:10231000807706FB07F74FEAD737A7FB03687642BB
:10232000A7FB06CEC8F5803838BFA8F1010807FB27
:1023300008E6A6FB028C4FF0000EE6FB03CEDCF1B4
:10234000000CCEF1004E38BFAEF1010EA6FB0C58CA
:102350004FF00007E6FB0E87A1FB08C6A0FB07CEE7
:1023600016EB0E064FF0000545F10005E1FB076591
:1023700015F1E04E7EBFA4F580345FEA46066D415C
:1023800016F1800745F100054FEA172747EA056770
:102390004FEA15254FEA0666A6F1DE46B6F1805FE4
:1023A00020D9384605EBC47124F0010C01EB0C1167
:1023B000BCF1FE6F02D8F0BCBDE8008124425CBFD6
:1023C00001F5801E9EEAC47F02D4F0BCBDE8008106
:1023D000244200F13980A1F1C041F0BCBDE80041C8
:1023E00000F017B94FEAD02040EA41504FEAD1211E
:1023F0004FEAD22242EA43524FEAD323A7FB028696
:1024000007FB036605FB02661EEA0E0F58BFA6EB2C
:102410000056B6EB00564FEA520E4EEAC37E18EB5A
:102420000E0E56EB530EBCD518EB02085E417F1C16
:1024300055F10005B5E74FF480154FF000074FF058
:1024400000064FF00008ACE701F1C04101F0004187
:102450004FF00000F0BCBDE800810CEA131511EA52
:102460000C1F00D00CE013EA0C1F00F026804FF088
:10247000000081EA030101F00041F0BCBDE80081E9
:10248000F0BCBDE8004181EA030100F0C2B8F0BC35
:10249000BDE8004170B500F06EF800BF097EFC3E5B
:1024A00000F007B84FF0000081EA030101F000419D
:1024B000704781EA030100F0ACB8F0BCBDE8004110
:1024C00022494FF000007047FFFDFBF9F7F5F4F2E9
:1024D000F0EEEDEBE9E8E6E4E3E1E0DEDDDBDAD8BF
:1024E000D7D5D4D3D1D0CFCDCCCBCAC8C7C6C5C41D
:1024F000C2C1C0BFBEBDBCBBBAB9B8B7B6B5B4B334
:10250000B2B1B0AFAEADACABAAA9A8A8A7A6A5A41E
:10251000A3A3A2A1A09F9F9E9D9C9C9B9A999998E2
:102520009797969595949393929191908F8F8E8E85
:102530008D8C8C8B8B8A8989888887878685858412
:1025400084838382828181800000FF070000F87FFE
:10255000B0FA80F310FA03F10AD0C3F11D0303F5BA
:1025600080634FEA03524FEA415002EBD12170479A
:102570004FF0000070470EF1020E2EF0030E5EF8D1
:10258000046B364205D4012A43EB030515F5001F01
:1025900012D8012841EB010C1CF5001F0CD80ED1FC
:1025A0004FEAD17C0CEB4C0C0CF1020C15F5001F22
:1025B00008BF4CEBD37C04E04FF0080C01E04FEA7D
:1025C000D37C0CEB4C0526FA05F606F00706B6F1AF
:1025D000040C06D20EEB860CBDE870404CF0010CEA
:1025E0006047DFE80CF0090B02024FF00041A1F553
:1025F00000214FF0000070BD19461046012851EB34
:10260000010418BFD4F5001484BF002001F000417C
:1026100070BD0808A0F500114FEA310170470000B5
:1026200090EA010F48BF81F0004100F14882421A50
:102630003CBF801A89184FEAD052A2EBD1534FF019
:102640007F4C1CEA410F18BF9CEA026F00F03B80F0
:102650004FF0004C4CEA00204CEA012121FA03FC27
:1026600010EB0C0C1ED202F1FF325FEA1C2040EB93
:10267000C25038BF70471CF07F0F4FEA400C18BFA4
:10268000BCF17F4F38BF7047C3F12003994008BFAA
:1026900020F00100BCF17F4F38BF7047A0F1C0406F
:1026A00000F001BA4FEA3C00000A40EBC25028BFDC
:1026B0001CF0FF0F4FEA400CE6D018BFBCF17F4F73
:1026C00038BF7047EAE79CEA026F05D010EA5C0F5A
:1026D00008BF00F00040704710B500F09EF900BF41
:1026E00064FBBE3E10B500F033F80CBF01200020A3
:1026F00010BD10B500F02CF814BF0120002010BD53
:1027000010B500F0A1F88CBF0120002010BD10B55D
:1027100000F09AF82CBF0120002010BD10B500F089
:10272000C7F894BF0120002010BD10B500F0C0F81C
:1027300034BF0120002010BD401058BFC0F1404000
:10274000491058BFC1F140418142EFF3008070470A
:1027500050EA010C00F113801CF5000F58BFBCF5C6
:10276000000F01D48842704707D710F5000F58BFFB
:1027700011F5000F15D488427047894270471CF547
:10278000000F04D5BCF5000FF7D5814270474FF01C
:10279000807C1CEB400F38BF1CEB410F01D2814203
:1027A000704710B500F039F9922449004FF00050FD
:1027B0004FF08051FFF7C0BF41000B0ED3F19E02D6
:1027C00008D950F400034FEA032323FA02F048BF6C
:1027D0004042704710B500F020F900BF49922480B4
:1027E000002070476FF0004282EA2000704700002E
:1027F00010F0004148BF4042B0FA80F310FA03F2F3
:10280000C3F19D030BD051EAC35101EB12205306D3
:1028100038BF704700F1010008BF20F00100704789
:10282000B0FA80F310FA03F2C3F19D030AD0D90580
:1028300001EB1220530638BF704700F1010008BFBA
:1028400020F001007047000050EA010C00F11380F5
:102850001CF5000F58BFBCF5000F01D4884270472B
:1028600007D710F5000F58BF11F5000F15D4884297
:102870007047894270471CF5000F04D5BCF5000F66
:10288000F7D5814270474FF0807C1CEB400F38BF7A
:102890001CEB410F01D28142704710B500F0BDF82A
:1028A000922449004FF080504FF00051FFF744BF91
:1028B00050EA010C00F113801CF5000F58BFBCF565
:1028C000000F01D48842704707D710F5000F58BF9A
:1028D00011F5000F15D488427047894270471CF5E6
:1028E000000F04D5BCF5000FF7D5814270474FF0BB
:1028F000807C1CEB400F38BF1CEB410F01D28142A2
:10290000704710B500F089F8922449004FF000504C
:102910004FF08051FFF710BF4FF47F0C1CEAD0122C
:102920001EBF1CEAD11392EA0C0F93EA0C0F00F0C1
:10293000478090EA010F48BF42F480724FF0004C8C
:102940004CEA00204CEA012102EB0302A0FB011338
:10295000A2F50002002918BF43F001035B0028BF65
:102960004FEA330342EB22425FEA132C4CEBC25096
:102970002EBFBCEB436FB2F57C0F70474FEA036C80
:10298000BCF1004F08BF20F00100B2F57C0F38BF4A
:1029900070470BD582F0FF0212F5803FC8BF704729
:1029A00000F1C040D8BF00F00040704700F5000CB7
:1029B0005FEA4C0C48BF7047B0F1C04000F073B8FC
:1029C0000CEAD11390EA010F48BF42F480726245CD
:1029D00038BF634504D280EA010000F00040704730
:1029E00010B500F01AF800BF8900013E00F007B8EA
:1029F00000F009B85FEA410C5FEA1C6C08D080EA7D
:102A0000010000F050B85FEA400C5FEA1C6CF6D1A0
:102A10004FF00040A0F5800070470EF1020E2EF03E
:102A2000030E5EF8044B244204D44FEA4102B2F193
:102A30007F4F11D84FEA4003B3F17F4F0CD80ED12E
:102A40004FEAD07C0CEB4C0C0CF1020CB2F17F4F36
:102A500008BF4CEBD17C04E04FF0080C01E04FEADA
:102A6000D17C0CEB4C0324FA03F404F00704B4F11A
:102A7000040C06D20EEB840CBDE810404CF0010CA7
:102A80006047DFE80CF0070802024FF00040A0F5B5
:102A9000800010BD0846420018BFD2F1807288BF86
:102AA00000F0004010BDFF2141EAD050C005704742
:102AB00090EA010F48BF81F000413FF5B8AD421ADE
:102AC00004D882F00042A0EB020011444FEAD05239
:102AD000A2EBD1534FF07F4C1CEA410F18BF9CEA88
:102AE000026F4AD04FF0004C4CEA00204CEA012122
:102AF00021FA03FCB0EB0C0C0FD412F0FE0F36D011
:102B00005FEA4C001DD5001240EBC25038BF704741
:102B10001CF03F0F18BF70470BE05FEA1C20A2F1CA
:102B2000010240EBC25038BF70471CF07F0F18BF46
:102B30007047C3F12003994014BF401E20F00100EC
:102B400070474FEA1223800808BF7047B0FA80FC34
:102B5000A2EB0C02CCF1280C60FA0CF093EA122FD5
:102B600004BF00EBC25070474FEAC3707047130AAE
:102B70005FEADC1008BF7047F6E79CEA026F04D0FA
:102B800010EA5C0F08BF0020704710B5FFF745FF43
:102B900040DFF63E81F0004070470000000000007A
:102BA00000000102030406070809000000000102FA
:102BB0000304010202030405060708090A0B0C0DB1
:102BC0000E0F1010E82B0008000000203800000055
:102BD00028010008202C0008380000208007000091
:102BE00044010008000000000080BB4400E01245E2
:102BF000EC51B8BD0AD723BC0AD7A3BC17B75139CB
:102C0000A784F0310000803F8797F1350100000074
:102C10001000000000127A00830000000000000095
:04000005080000ED02
:00000001FF
