:020000040000FA
:10000000380520206D01000071010000730100001F
:1000100000000000000000000000000000000000E0
:10002000000000000000000000000000750100005A
:1000300000000000000000007701000079010000CE
:100040007B0100007B0100007B0100007B010000C0
:100050007B0100007B0100007B0100007B010000B0
:10006000000000007B0100007B0100000000000098
:10007000000000007B0100007B010000050E000075
:100080007B0100007B010000B90C00007B01000037
:100090007B0100007B010000000000000000000068
:1000A0007B0100007B010000000000000000000058
:1000B0007B010000000000007B0100007B010000CC
:1000C00000F002F800F042F812A030C808382418F6
:1000D0002D18AC4201D100F039F80FCCA246AB4646
:1000E0000CA730CF2D1B083F3F197C427F1E544484
:1000F0002D090426F441641EAC4201D300F026F819
:100100000126334200D0FB1A3343984754465D46DC
:10011000DFE700008C1300009C13000000000000CB
:100120007047000000000000002300240025002686
:10013000103A01D378C1FBD8520700D330C100D5A3
:100140000B6070471FB51FBD10B510BD00F0A2F8C1
:100150001146FFF7F7FF00F039FF00F0BAF803B4DB
:10016000FFF7F2FF03BC00F00FF90000064800475C
:10017000FEE7FEE7FEE7FEE7FEE7FEE70348044989
:10018000044A054B70470000C100000038032020DE
:1001900038052020380420203804202001E004C045
:1001A000091F0429FBD28B0701D50280801CC907D7
:1001B00000D00270704700290BD0C30702D0027034
:1001C000401C491E022904D3830702D50280801CEB
:1001D000891EE3E70022EEE70022DFE77047704761
:1001E000704710B501469E240002CA15A307002AD5
:1001F00002D01843002A04DBA21A002A0CDDD040EA
:1002000010BD1206120E01D140004008A21A03D4FC
:10021000D04040420028F3DDFF2248001206904201
:1002200001D9002010BDC817C043584010BD0000C0
:1002300010B5FF231B0644009C421DD84C009C4275
:100240001AD80346124A0B4307D4401A02D3EFF3DD
:10025000008010BDEFF3008010BD081A03D3EFF348
:100260000080904305E0EFF3008001219043C9072F
:10027000084380F3008810BD0D231B041A4204D0EC
:100280001146002000F02DF810BD00F041F810BD1F
:1002900000000090754600F043F8AE460500694640
:1002A0005346C008C000854618B020B5FFF766FF6A
:1002B00060BCB64600260027C0C5C0C5C0C5C0C5C5
:1002C000C0C5C0C5C0C5C0C5403D490849008D4630
:1002D000704710B50446C046C0462046FFF73FFFB2
:1002E00010BDC80212D54803400F002804D0C8032F
:1002F000C043012188407047EFF3008000010009EE
:1003000003210907084380F30088704700207047E5
:1003100010B5024800F008F810BD00000000C07FD2
:10032000004870470000202010B50C461107090F47
:10033000092904D00A290AD008290CD104E0114661
:100340000820FFF7CEFF06E0510606D501E0510672
:1003500001D50120C007214610BDD10607D50101F6
:100360000909CC084907000E0006044309E0410FC3
:1003700020024907000A0143200E00061D22D14138
:1003800001430846E7E7000001491820ABBEFEE73D
:100390002600020070470000F0B585B0002800D1AB
:1003A000DAE00446806D002801D0401EA065502090
:1003B000275CA66A002F0DD1E069684900F07AFF3A
:1003C00005466749304600F075FF294600F002FFF8
:1003D0000646A062002F049701D1282000E01C20CF
:1003E0002558604F3E408120C105304600F0E7FEB1
:1003F0000028294600D101460498002800D10D4666
:10040000E562266A2846314600F0ACFF01462068C6
:1004100000F050FF02902F40E168384600F0C4FE23
:10042000002804D16168284600F044FF00E0002065
:10043000019030460396314600F0CCFE0146284636
:1004400000F090FF616A00F0C5FE0646A0637F20C1
:10045000C0052769394600F085FF0146304600F0A7
:1004600029FF0646E06B394600F024FF314600F0D4
:10047000B1FE0146E063A06800F01CFF064602984A
:10048000019900F0A7FE314600F0A4FE0646206365
:100490006769394600F093FE002806D1A769304607
:1004A000394600F081FE002801D127633E46616B8A
:1004B000304600F08FFE074660630498002801D1A3
:1004C0002A4E00E0284E3846314600F078FE0028DB
:1004D00008D10120C00736183846314600F064FEC6
:1004E000002801D166633746256203986062A56CD7
:1004F0002846394600F036FF0646606428463946ED
:1005000000F068FE05462064194F394600F057FE9A
:10051000002806D100272846394600F045FE00286D
:1005200001D127643D46124F3046394600F047FE60
:10053000002806D100273046394600F035FE002855
:1005400000D167642846FFF74CFE00F0E9FC606CC0
:10055000FFF747FE00F000FD05B0F0BD9A99993E07
:100560003333333FFFFFFF7F0000C841000070417D
:100570000000C64210B5002815D00446406D401C4E
:100580006065A06CFFF72DFE00F092FCA06CFFF7F9
:1005900028FE00F0A9FC606D0F2804D35220012131
:1005A00021540020606510BDB0B500281FD004465E
:1005B000406D401C60650025284600F0B1FC2520F8
:1005C00000F0CAFC606DC9280AD309490968C9044A
:1005D00001D4E56504E0E16D491CE165022902D81A
:1005E000216E884203D35220022121546565B0BD9B
:1005F00080130A4010B500281ED00446406D401CF0
:100600006065782000F054FC606D0F2814D32046FC
:1006100051300A4901220A7000216165E165E163F8
:10062000E16121626162A162E16221636163417003
:1006300001707D208000A06510BDC04630032020E1
:10064000811E091F00BFFCD270470000B0B5112207
:10065000120283580C4C1C400B894D881D438B792A
:100660002B430A4D1D402B1983508B88CC791C439A
:10067000097821435D239B001940801842689A4302
:1006800089184160B0BDC04680CCFFFF7F330000B9
:1006900010B50122120383180C785C6049788150F0
:1006A00010BD0000F0B57A4A82183B4BC318087998
:1006B0004E793A4D784C002E23D0202804D00526C0
:1006C000F601002803D003E0354E002800D188262B
:1006D000576F2F4037435767976F2F4037439767C0
:1006E000566B26405663966B2640966300265665E9
:1006F00096658F26F6435F6837405F609F68374096
:100700009F608E79096820280BD0002819D1491ED6
:100710005160D76E2F4088210F43D7661746703738
:1007200019E0491E5160D16E29401D4F3943D166F1
:10073000116F29403943116701214907194D1746A7
:1007400009E049085160D76E2F400521C9010F43C8
:10075000D766174670373C682C400C433C60D16A22
:100760004D4C2140D162116B214011630021D164B5
:1007700011658F21C943D46F0C40D4671C680C40AD
:100780001C600643BD2030401168074B0B40C01869
:10079000801C1060F0BDC0468418000024493E0053
:1007A00001040000FFFFFFCF4000FFCFB0B54A6853
:1007B000364BC250364A80180A78222A58D89300FD
:1007C00001A4E3589F46C046670800007108000076
:1007D000670800007108000071080000710800003F
:1007E0007108000071080000710800007108000025
:1007F0007108000071080000710800007108000015
:100800007108000071080000550800007108000020
:100810005508000071080000710800007108000010
:1008200071080000710800007108000071080000E4
:1008300071080000710800007108000071080000D4
:1008400071080000710800005508000071080000E0
:100850005508000003231B0704689C4301235B0722
:10086000E318036004E003231B0704689C4304604F
:100870000B69C360CB68074C1C40C36A064D1D4022
:100880002B19C362097A11430160B0BD081800003A
:1008900004180000777702008888FDFF10B5072351
:1008A0009B04194092008018024A84589C436118A6
:1008B000815010BD3018000010B5029CA400001932
:1008C00011431943014A815010BDC0465018000021
:1008D00092008018014A81507047C04610180000ED
:1008E00010B50122120383180C789C604B7883505A
:1008F0008978014A815010BD0C110000B0B5112259
:10090000120283580124A34383500B888C781C4324
:100910008B882343094C1C408358094D1D406319A3
:1009200083508B79CC791C43097A21437E2319406B
:10093000801842689A4351184160B0BD18670000A2
:10094000E798FDFF10B50122120383180C789C6014
:100950004978815010BD0000B0B51B4987228A66D6
:1009600001239C06194804604A651C0604608A61DC
:100970005A04026085224A611B040360144A8224DF
:100980001465144C546583255566CD61641CD4658B
:1009900081334B64104B4B608B644B6613669365DD
:1009A0000E4BD36393630B60D3670B648121516754
:1009B000116051600146403903220A600260084814
:1009C000084901600163B0BD84804240D0120A40F2
:1009D000048042408200040081000D0081000E006E
:1009E000A0320A4000204000F0B581B0194C1A49ED
:1009F0002046FFF775FF19492046FFF753FE0025F3
:100A00000095204629462A462B46FFF755FF2046EB
:100A100029462A46FFF742FF6426204631462A46E9
:100A2000FFF756FF01270097204629462A462B4606
:100A3000FFF742FF204629463A46FFF72FFF2046A0
:100A400031463A46FFF744FF0548876003210160BD
:100A500001B0F0BD00A086405414000058140000FE
:100A600000B18640F0B581B0194C1A492046FFF715
:100A700037FF19492046FFF715FE0025009520464F
:100A800029462A462B46FFF717FF204629462A46C5
:100A9000FFF704FF6426204631462A46FFF718FF79
:100AA00001270097204629462A462B46FFF704FFD8
:100AB000204629463A46FFF7F1FE204631463A469F
:100AC000FFF706FF054887600321016001B0F0BD14
:100AD000002086406014000064140000003186404D
:100AE00010B50C4C0C492046FFF7D2FD0B492046AF
:100AF000FFF7ACFD0A4841680A4A0A404260816833
:100B000012220A432D218A438260016801220A438E
:100B1000026010BD00A046406C1400006E1400007E
:100B200004B1464000FCFFFF0C4800210160032097
:100B3000C1430B480246083A13680B401360016832
:100B4000012291430160110203688B43036011038A
:100B5000001F02680A4302607047C04608030B404A
:100B600008010B4010B5084C08492046FFF7B8FEB5
:100B700007492046FFF71AFE064801680122114383
:100B800001600548026010BD000086407814000036
:100B90007C140000281086400811864010B5154CC2
:100BA00015492046FFF7CEFE14492046FFF7A6FE62
:100BB0000320C103124802688A4302600169114A96
:100BC0000A40911C016141690B220A4334218A4386
:100BD00042614168012211404368934359184160C2
:100BE0009102094B1C680C431C60016811430160B1
:100BF00010BDC04600801040901400009214000008
:100C0000009110400000FFFF2890104080B500F0D8
:100C100023F8FFF7A1FEFFF787FFFFF7E5FEFFF7D9
:100C200021FFFFF79FFFFFF7B9FFFFF759FFB8203C
:100C3000054900220A549C21044B5A5404490A5481
:100C4000242004490A5480BD080120206800202087
:100C5000EC012020C4012020F0B581B00D480E49E0
:100C600041600E4A51600E4B59600E4C61600E4D52
:100C700069600E4E71600E4F79600E49016011601F
:100C8000196021602960316039601020FFF7D8FCBD
:100C900001B0F0BD00080A40030000B100280A407E
:100CA00000A8864000288640000886400088104042
:100CB00000A846400100002680B508480068C0B280
:100CC00001280AD106480168491C016000F09AF920
:100CD0004649087043480121017080BD20108640BC
:100CE000140320204248002141608160C1600180DE
:100CF0007047C04610B53B4C207800286FD03A486A
:100D000001783A4A13788B421ED13A4801784B1C3D
:100D1000037037490878DBB2022B1CD31378002B01
:100D200016D0002814D11078421ED3B2042B57D805
:100D300000228A60CA60487001200870052B01D229
:100D40009A00521D4A6003E011780170284800782B
:100D5000284900220A70022806D0012826D000283F
:100D60003BD100F015F938E000F012F92248016893
:100D7000491C0160332905D3002101600120800551
:100D80001E4908611A48C168491CC160FF222E3201
:100D9000914222D3002141608160C160018000F056
:100DA000F7F8012080051549086016E000F05CF9AD
:100DB00000F044F9EFF3108072B611480178012970
:100DC0000AD1002101700A488168491C816042688B
:100DD000914201D30221017062B60020207010BD43
:100DE0000020B5E7100320206500202018032020F4
:100DF0001C0320206400202060002020A0320A4034
:100E0000300320200B480068C0B20B2811D10A48DB
:100E1000C1690A4A117011780268D20708D00268C5
:100E2000D20705D00268D20702D00268D207F3D1F8
:100E300081617047209010400891104031032020BC
:100E4000F0B581B0D04C1248A0641349134A144B3A
:100E5000144E00256565A565E565134F13482660AA
:100E60006360A260E1600B4921616061A761204677
:100E70001C302C21FFF7B0F920464C30857185805D
:100E8000E5647D20C0002066656601B0F0BDC04607
:100E9000000024423333333F000040413333B33E3C
:100EA0000AD7A33CCDCC0C40000040C0000040401D
:100EB000B0B50546434C002120460A46FFF708FD21
:100EC000632D284600DB6320C217014691430028AA
:100ED000084600D42846632D00DC01460122204646
:100EE000FFF7F6FCB0BDC046B0B56328024600DB94
:100EF0006322D31711469943002A0A4600D40246BA
:100F0000632800DC1146304C002520462A46FFF7B6
:100F1000DFFC012220462946FFF7DAFCB0BDC046BF
:100F2000B0B56328024600DB6322D317114699430C
:100F3000002A0A4600D40246632800DC1146214CF0
:100F4000002520462A46FFF7C3FC012220462946F9
:100F5000FFF7BEFCB0BDC046B0B505461A4C002137
:100F600020460A46FFF7B4FC632D284600DB6320C9
:100F7000C217014691430028084600D42846632D35
:100F800000DC014601222046FFF7A2FCB0BDC046AE
:100F900070B50C4D0024284621462246FFF798FCE8
:100FA0000126284621463246FFF792FC064D284688
:100FB00021462246FFF78CFC284621463246FFF7A1
:100FC00087FC70BD00A0864000208640FFF71EFE13
:100FD0000120C103084A116080041060074A1060B4
:100FE00011600748FFF72CFBFFF77CFEFFF728FF97
:100FF000FFF780FEFCE7C04680E200E000E100E091
:1010000000D430005F480168090401D40120704712
:101010000168C90301D4022070470168490701D45F
:10102000032070470168090701D404207047006855
:10103000800201D5002070470520704780B55120FF
:101040005149085C002806D001280AD15220085CCA
:10105000032806D2401CC0000249081841684A48CB
:10106000884780BD34140000F0B583B045490A6854
:10107000454812011AD55122825C002A16D1826D90
:10108000002A13D152210022425401210902502387
:10109000C15242650263426302624262C16A7D23B9
:1010A000DB00C2650366416603B0F0BD0A680192C9
:1010B0000423364F3A68009202240A6802920A68B2
:1010C000D20D102515400A68120D08261640721917
:1010D0003D68AD0A1D4052190D68ED0925405219B1
:1010E00009684906C90F51181F2907D1502101224B
:1010F0004254C16C012928DB2A493FE00199490D7E
:101100001940009AD20A22405118029AD205D20FF1
:101110008A18072151405022835C012B06D10023FD
:10112000835403634363C36303624362491E052917
:101130000DD8C0467944097949008F44020A0D113F
:1011400008161E21C164124918E0002915D403B005
:10115000F0BD0021C16411E00A21C1640E490DE017
:101160000C49C1611D21C94304E00C49C1611D2125
:10117000C9431431C16403B0F0BD0949C16103B072
:10118000F0BDC04680330A40A802202080130A40E8
:101190000000F0410000F0C100002041000020C12B
:1011A000000048C20000484210B500F059F8EFF3C3
:1011B0000080800001D5012010BD002010BD10B5B9
:1011C00000F04EF8EFF300804000800F012800D0BF
:1011D000002010BD70B50125ED0704004C4020D45F
:1011E000441A01D2001B0919C60D4B00F2B2FF2AA6
:1011F00029D01B0E2CD000020C0228432C43D31AFA
:10120000DC40051910D2280A02D3401C6D0611D00B
:10121000761EF6058019FF2A00DA70BDC00DC005E4
:1012200070BD694000F0A4F801200543C541521C7F
:10123000761CE8E764089C40C90161408900E7D159
:101240000124A043E4E71B0E440200D0034870BD14
:10125000002AFCD1C00FC00770BD00BF0000C07FD6
:101260000123DB0502000A430DD4DA4203D49A427B
:1012700007D488427047D84214D4D94212D4884245
:10128000704780427047DA4203D59A42F9D58142CD
:1012900070475B004200DA4204D24A00DA4201D2CF
:1012A0008142704710B5024AFEF7C2FF10BD00BF71
:1012B0000900130470B5420064414B005C41120EFA
:1012C00039D01B0E38D0FF2A3CD0FF2B3AD0D21891
:1012D0007F3A40024902400A490A4518ED010600DA
:1012E0004E43000A090A48430104731A4019190CB5
:1012F0004318990F04D05B08012149075B1A521C5F
:10130000D80904D3401CF50301D19D0607D0FF2A5C
:1013100008D2D50506D0E4072043401970BD012549
:10132000A843F4E7002A01DCE00770BD2402FF2097
:101330002043C00570BD1B0EFF2A03D0FF2B01D038
:10134000E00770BDFF2636064500B54206D84D00C1
:10135000B54203D8D218FF2A00D0E7E7004870BD95
:101360000000C07F70B50125ED0704004C4022D479
:10137000441A02D26C40001B0919C60D4B00F2B290
:10138000FF2A4BD01B0E50D000020C02A8432C4366
:10139000D31ADC40051B05D5AD0019D36D08761EA8
:1013A000521E37D0F605280A01D2801970BD70414F
:1013B0006D0603D070BD6940FFF712FF9C40090223
:1013C0006140490001D0401E70BD0124A04370BDA2
:1013D0006D081DD001202B0C01D12D0410302B0ED7
:1013E00001D12D0208302B0F01D12D01001DAB0FB3
:1013F00001D1AD00801CEB0F01D16D00401C361AED
:10140000121A6D00680AF5054019012A02DB70BD49
:10141000002070BDC036300AC00770BD1B0E4402EC
:1014200001D1FF2B00D1024870BD002AF0D070BD61
:101430000000C07F000000009903000001000000D0
:101440007505000001010000A9050000010200006F
:10145000F505000008070100C800000010000100A9
:1014600008070100C8000000100001000800040087
:1014700000000000071000000807630002000000E1
:10148000C700000001000000000000000000000094
:101490000400000018000000003000000000000000
:1014A000B0140000000020203805000028010000D2
:04000005000000C136
:00000001FF
